{
  "contractName": "Staker",
  "abi": [
    {
      "inputs": [
        {
          "internalType": "address",
          "name": "_stakeToken",
          "type": "address"
        }
      ],
      "stateMutability": "nonpayable",
      "type": "constructor"
    },
    {
      "anonymous": false,
      "inputs": [
        {
          "indexed": true,
          "internalType": "address",
          "name": "account",
          "type": "address"
        },
        {
          "indexed": false,
          "internalType": "uint256",
          "name": "timestamp",
          "type": "uint256"
        },
        {
          "indexed": false,
          "internalType": "uint256",
          "name": "unlockTime",
          "type": "uint256"
        },
        {
          "indexed": false,
          "internalType": "address",
          "name": "locker",
          "type": "address"
        }
      ],
      "name": "Lock",
      "type": "event"
    },
    {
      "anonymous": false,
      "inputs": [
        {
          "indexed": true,
          "internalType": "address",
          "name": "previousOwner",
          "type": "address"
        }
      ],
      "name": "OwnershipRenounced",
      "type": "event"
    },
    {
      "anonymous": false,
      "inputs": [
        {
          "indexed": true,
          "internalType": "address",
          "name": "previousOwner",
          "type": "address"
        },
        {
          "indexed": true,
          "internalType": "address",
          "name": "newOwner",
          "type": "address"
        }
      ],
      "name": "OwnershipTransferred",
      "type": "event"
    },
    {
      "anonymous": false,
      "inputs": [
        {
          "indexed": true,
          "internalType": "address",
          "name": "account",
          "type": "address"
        },
        {
          "indexed": false,
          "internalType": "uint256",
          "name": "timestamp",
          "type": "uint256"
        },
        {
          "indexed": false,
          "internalType": "uint256",
          "name": "value",
          "type": "uint256"
        }
      ],
      "name": "Stake",
      "type": "event"
    },
    {
      "anonymous": false,
      "inputs": [
        {
          "indexed": true,
          "internalType": "address",
          "name": "account",
          "type": "address"
        },
        {
          "indexed": false,
          "internalType": "uint256",
          "name": "timestamp",
          "type": "uint256"
        },
        {
          "indexed": false,
          "internalType": "uint256",
          "name": "value",
          "type": "uint256"
        }
      ],
      "name": "Unstake",
      "type": "event"
    },
    {
      "inputs": [],
      "name": "owner",
      "outputs": [
        {
          "internalType": "address",
          "name": "",
          "type": "address"
        }
      ],
      "stateMutability": "view",
      "type": "function"
    },
    {
      "inputs": [],
      "name": "renounceOwnership",
      "outputs": [],
      "stateMutability": "nonpayable",
      "type": "function"
    },
    {
      "inputs": [],
      "name": "tier_01",
      "outputs": [
        {
          "internalType": "uint256",
          "name": "",
          "type": "uint256"
        }
      ],
      "stateMutability": "view",
      "type": "function"
    },
    {
      "inputs": [],
      "name": "tier_02",
      "outputs": [
        {
          "internalType": "uint256",
          "name": "",
          "type": "uint256"
        }
      ],
      "stateMutability": "view",
      "type": "function"
    },
    {
      "inputs": [],
      "name": "tier_03",
      "outputs": [
        {
          "internalType": "uint256",
          "name": "",
          "type": "uint256"
        }
      ],
      "stateMutability": "view",
      "type": "function"
    },
    {
      "inputs": [],
      "name": "tier_04",
      "outputs": [
        {
          "internalType": "uint256",
          "name": "",
          "type": "uint256"
        }
      ],
      "stateMutability": "view",
      "type": "function"
    },
    {
      "inputs": [],
      "name": "tier_05",
      "outputs": [
        {
          "internalType": "uint256",
          "name": "",
          "type": "uint256"
        }
      ],
      "stateMutability": "view",
      "type": "function"
    },
    {
      "inputs": [],
      "name": "tier_06",
      "outputs": [
        {
          "internalType": "uint256",
          "name": "",
          "type": "uint256"
        }
      ],
      "stateMutability": "view",
      "type": "function"
    },
    {
      "inputs": [],
      "name": "tier_coefficient_01",
      "outputs": [
        {
          "internalType": "uint256",
          "name": "",
          "type": "uint256"
        }
      ],
      "stateMutability": "view",
      "type": "function"
    },
    {
      "inputs": [],
      "name": "tier_coefficient_02",
      "outputs": [
        {
          "internalType": "uint256",
          "name": "",
          "type": "uint256"
        }
      ],
      "stateMutability": "view",
      "type": "function"
    },
    {
      "inputs": [],
      "name": "tier_coefficient_03",
      "outputs": [
        {
          "internalType": "uint256",
          "name": "",
          "type": "uint256"
        }
      ],
      "stateMutability": "view",
      "type": "function"
    },
    {
      "inputs": [],
      "name": "tier_coefficient_04",
      "outputs": [
        {
          "internalType": "uint256",
          "name": "",
          "type": "uint256"
        }
      ],
      "stateMutability": "view",
      "type": "function"
    },
    {
      "inputs": [],
      "name": "tier_coefficient_05",
      "outputs": [
        {
          "internalType": "uint256",
          "name": "",
          "type": "uint256"
        }
      ],
      "stateMutability": "view",
      "type": "function"
    },
    {
      "inputs": [],
      "name": "tier_coefficient_06",
      "outputs": [
        {
          "internalType": "uint256",
          "name": "",
          "type": "uint256"
        }
      ],
      "stateMutability": "view",
      "type": "function"
    },
    {
      "inputs": [],
      "name": "totalPortions",
      "outputs": [
        {
          "internalType": "uint256",
          "name": "",
          "type": "uint256"
        }
      ],
      "stateMutability": "view",
      "type": "function"
    },
    {
      "inputs": [
        {
          "internalType": "address",
          "name": "newOwner",
          "type": "address"
        }
      ],
      "name": "transferOwnership",
      "outputs": [],
      "stateMutability": "nonpayable",
      "type": "function"
    },
    {
      "inputs": [],
      "name": "getTotalPortions",
      "outputs": [
        {
          "internalType": "uint256",
          "name": "",
          "type": "uint256"
        }
      ],
      "stateMutability": "nonpayable",
      "type": "function"
    },
    {
      "inputs": [
        {
          "internalType": "uint256",
          "name": "_totalPortions",
          "type": "uint256"
        }
      ],
      "name": "setTotalPortions",
      "outputs": [],
      "stateMutability": "nonpayable",
      "type": "function"
    },
    {
      "inputs": [
        {
          "internalType": "address",
          "name": "account",
          "type": "address"
        }
      ],
      "name": "allocation",
      "outputs": [
        {
          "internalType": "uint256",
          "name": "",
          "type": "uint256"
        }
      ],
      "stateMutability": "view",
      "type": "function"
    },
    {
      "inputs": [
        {
          "internalType": "address",
          "name": "account",
          "type": "address"
        }
      ],
      "name": "stakedBalance",
      "outputs": [
        {
          "internalType": "uint256",
          "name": "",
          "type": "uint256"
        }
      ],
      "stateMutability": "view",
      "type": "function"
    },
    {
      "inputs": [
        {
          "internalType": "address",
          "name": "account",
          "type": "address"
        }
      ],
      "name": "tierLevel",
      "outputs": [
        {
          "internalType": "uint256",
          "name": "",
          "type": "uint256"
        }
      ],
      "stateMutability": "view",
      "type": "function"
    },
    {
      "inputs": [
        {
          "internalType": "address",
          "name": "account",
          "type": "address"
        }
      ],
      "name": "unlockTime",
      "outputs": [
        {
          "internalType": "uint256",
          "name": "",
          "type": "uint256"
        }
      ],
      "stateMutability": "view",
      "type": "function"
    },
    {
      "inputs": [
        {
          "internalType": "address",
          "name": "account",
          "type": "address"
        }
      ],
      "name": "isIDO",
      "outputs": [
        {
          "internalType": "bool",
          "name": "",
          "type": "bool"
        }
      ],
      "stateMutability": "view",
      "type": "function"
    },
    {
      "inputs": [
        {
          "internalType": "uint256",
          "name": "value",
          "type": "uint256"
        }
      ],
      "name": "stake",
      "outputs": [],
      "stateMutability": "nonpayable",
      "type": "function"
    },
    {
      "inputs": [
        {
          "internalType": "uint256",
          "name": "value",
          "type": "uint256"
        }
      ],
      "name": "unstake",
      "outputs": [],
      "stateMutability": "nonpayable",
      "type": "function"
    },
    {
      "inputs": [
        {
          "internalType": "address",
          "name": "user",
          "type": "address"
        },
        {
          "internalType": "uint256",
          "name": "__unlockTime",
          "type": "uint256"
        }
      ],
      "name": "lock",
      "outputs": [],
      "stateMutability": "nonpayable",
      "type": "function"
    },
    {
      "inputs": [
        {
          "internalType": "bool",
          "name": "status",
          "type": "bool"
        }
      ],
      "name": "halt",
      "outputs": [],
      "stateMutability": "nonpayable",
      "type": "function"
    },
    {
      "inputs": [
        {
          "internalType": "address",
          "name": "account",
          "type": "address"
        }
      ],
      "name": "addIDO",
      "outputs": [],
      "stateMutability": "nonpayable",
      "type": "function"
    }
  ],
  "bytecode": "0x608060405260646001556101906002556103e8600355610bb8600455611770600555613a986006556001600755600160085560016009556003600a556006600b55600f600c55610208600d5534801561005757600080fd5b50604051610d17380380610d178339818101604052602081101561007a57600080fd5b5051600080546001600160a01b03199081163317909155600e80546001600160a01b0390931692909116919091179055610c5e806100b96000396000f3fe608060405234801561001057600080fd5b50600436106101c45760003560e01c806376b467b7116100f9578063bb56c42811610097578063d91114bd11610071578063d91114bd146103b7578063e42a7761146103dd578063f2fde38b146103e5578063fcd567991461040b576101c4565b8063bb56c4281461039f578063bf929768146103a7578063c8770bca146103af576101c4565b806396a38d22116100d357806396a38d221461035b578063981498bd1461037a578063a694fc3a14610382578063b81b8630146102a1576101c4565b806376b467b71461030957806382acf5d61461032f5780638da5cb5b14610337576101c4565b80632e17de78116101665780635cf0cd47116101405780635cf0cd471461029957806360217267146102a1578063715018a6146102c757806373b8ff1a146102cf576101c4565b80632e17de781461024e5780633c36a5b21461026b578063557826f114610291576101c4565b80631f83a514116101a25780631f83a5141461020a578063282d3fdf146102125780632864a41a1461023e5780632aabf89b14610246576101c4565b8063030c78e1146101c9578063046138eb146101e35780631bc3522d146101eb575b600080fd5b6101d1610413565b60408051918252519081900360200190f35b6101d1610419565b6102086004803603602081101561020157600080fd5b503561041f565b005b6101d161043b565b6102086004803603604081101561022857600080fd5b506001600160a01b038135169060200135610441565b6101d1610588565b6101d161058e565b6102086004803603602081101561026457600080fd5b5035610594565b6101d16004803603602081101561028157600080fd5b50356001600160a01b031661075d565b6101d16107d1565b6101d16107d7565b6101d1600480360360208110156102b757600080fd5b50356001600160a01b03166107dd565b6102086107f8565b6102f5600480360360208110156102e557600080fd5b50356001600160a01b0316610857565b604080519115158252519081900360200190f35b6101d16004803603602081101561031f57600080fd5b50356001600160a01b0316610875565b6101d1610890565b61033f610896565b604080516001600160a01b039092168252519081900360200190f35b6102086004803603602081101561037157600080fd5b503515156108a5565b6101d16108cf565b6102086004803603602081101561039857600080fd5b50356108d5565b6101d1610a7c565b6101d1610a82565b6101d1610a88565b610208600480360360208110156103cd57600080fd5b50356001600160a01b0316610a8e565b6101d1610b24565b610208600480360360208110156103fb57600080fd5b50356001600160a01b0316610b2a565b6101d1610baf565b60085481565b60035481565b6000546001600160a01b0316331461043657600080fd5b600d55565b60045481565b600080546001600160a01b031681526011602052604090205460ff166104ae576040805162461bcd60e51b815260206004820152601a60248201527f5374616b65723a206f6e6c792049444f732063616e206c6f636b000000000000604482015290519081900360640190fd5b428111610502576040805162461bcd60e51b815260206004820152601d60248201527f5374616b65723a20756e6c6f636b20697320696e207468652070617374000000604482015290519081900360640190fd5b6001600160a01b038216600090815260106020526040902054811115610584576001600160a01b03808316600081815260106020908152604080832086905591548251428152918201869052909316838201525190917f75784e97e4541f1b3d2c44d8c51b419e33fb6de615033cfc6e6810db54ffa4fe919081900360600190a25b5050565b600c5481565b60025481565b600080546001600160a01b0316815260106020526040902054421015610601576040805162461bcd60e51b815260206004820152601960248201527f5374616b65723a206163636f756e74206973206c6f636b656400000000000000604482015290519081900360640190fd5b600080546001600160a01b03168152600f60205260409020548111156106585760405162461bcd60e51b8152600401808060200182810382526023815260200180610c066023913960400191505060405180910390fd5b600080546001600160a01b03168152600f602052604090205461067b9082610bb5565b600080546001600160a01b039081168252600f6020908152604080842094909455600e548354855163a9059cbb60e01b8152908416600482015260248101879052945192169363a9059cbb93604480830194928390030190829087803b1580156106e457600080fd5b505af11580156106f8573d6000803e3d6000fd5b505050506040513d602081101561070e57600080fd5b5050600054604080514281526020810184905281516001600160a01b03909316927ff960dbf9e5d0682f7a298ed974e33a28b4464914b7a2bfac12ae419a9afeb280929181900390910190a250565b600060065461076b836107dd565b106107795750600c546107cc565b600554610785836107dd565b106107935750600b546107cc565b60045461079f836107dd565b106107ad5750600a546107cc565b6005546107b9836107dd565b106107c75750600b546107cc565b50600c545b919050565b600a5481565b60055481565b6001600160a01b03166000908152600f602052604090205490565b6000546001600160a01b0316331461080f57600080fd5b600080546040516001600160a01b03909116917ff8df31144d9c2f0f6b59d69b8b98abd5459d07f2742c4df920b25aae33c6482091a2600080546001600160a01b0319169055565b6001600160a01b031660009081526011602052604090205460ff1690565b6001600160a01b031660009081526010602052604090205490565b60095481565b6000546001600160a01b031681565b6000546001600160a01b031633146108bc57600080fd5b6013805460ff1916911515919091179055565b600b5481565b60135460ff161561092d576040805162461bcd60e51b815260206004820152601b60248201527f5374616b65723a204465706f7369747320617265207061757365640000000000604482015290519081900360640190fd5b6000811161096c5760405162461bcd60e51b815260040180806020018281038252602c815260200180610bda602c913960400191505060405180910390fd5b600e5460008054604080516323b872dd60e01b81526001600160a01b03928316600482015230602482015260448101869052905191909316926323b872dd9260648083019360209390929083900390910190829087803b1580156109cf57600080fd5b505af11580156109e3573d6000803e3d6000fd5b505050506040513d60208110156109f957600080fd5b5050600080546001600160a01b03168152600f6020526040902054610a1e9082610bcc565b600080546001600160a01b039081168252600f60209081526040808420949094559154835142815292830185905283519116927f5af417134f72a9d41143ace85b0a26dce6f550f894f2cbc1eeee8810603d91b6928290030190a250565b600d5481565b60065481565b60075481565b6000546001600160a01b03163314610aa557600080fd5b6001600160a01b038116610b00576040805162461bcd60e51b815260206004820152601e60248201527f5374616b65723a2063616e6e6f74206265207a65726f20616464726573730000604482015290519081900360640190fd5b6001600160a01b03166000908152601160205260409020805460ff19166001179055565b600d5490565b6000546001600160a01b03163314610b4157600080fd5b6001600160a01b038116610b5457600080fd5b600080546040516001600160a01b03808516939216917f8be0079c531659141344cd1fd0a4f28419497f9722a3daafe3b4186f6b6457e091a3600080546001600160a01b0319166001600160a01b0392909216919091179055565b60015481565b600082821115610bc157fe5b508082035b92915050565b81810182811015610bc657fefe5374616b65723a207374616b652076616c75652073686f756c642062652067726561746572207468616e20305374616b65723a20696e73756666696369656e74207374616b65642062616c616e6365a26469706673582212205bc4641f7cb1b96aa5b06adeae042f8d8839b59d4dfb84f3f84d1be77d7671aa64736f6c634300060c0033",
  "immutableReferences": {},
  "source": "// SPDX-License-Identifier: UNLICENSED\n\npragma solidity ^0.6.12;\n\nimport \"./Context.sol\";\nimport \"./IERC20.sol\";\nimport \"./SafeMath.sol\";\nimport \"./Address.sol\";\nimport \"./Ownable.sol\";\n\ncontract Staker is Ownable {\n    using SafeMath for uint256;\n    using Address for address;\n\n    uint256 public tier_01 = 100 ; // Bronze\n    uint256 public tier_02 = 400 ; // Sliver\n    uint256 public tier_03 = 1000 ; // Gold\n    uint256 public tier_04 = 3000 ; // Emerald\n    uint256 public tier_05 = 6000 ; // Ruby\n    uint256 public tier_06 = 15000 ; // Pearl\n\n    uint256 public tier_coefficient_01 = 1 ;\n    uint256 public tier_coefficient_02 = 1 ;\n    uint256 public tier_coefficient_03 = 1 ;\n    uint256 public tier_coefficient_04 = 3 ;\n    uint256 public tier_coefficient_05 = 6 ;\n    uint256 public tier_coefficient_06 = 15 ;\n\n    uint256 public totalPortions = 520 ;\n\n    IERC20 _token;\n    mapping (address => uint256) _balances;\n    mapping (address => uint256) _unlockTime;\n    mapping (address => bool) _isIDO;\n    mapping (address => uint256) tier;\n    bool halted;\n\n    event Stake(address indexed account, uint256 timestamp, uint256 value);\n    event Unstake(address indexed account, uint256 timestamp, uint256 value);\n    event Lock(address indexed account, uint256 timestamp, uint256 unlockTime, address locker);\n\n    constructor(address _stakeToken) public {\n\n        _token = IERC20(_stakeToken);\n    }\n\n    function getTotalPortions() external returns (uint256) {\n        return totalPortions;\n    }\n\n    function setTotalPortions(uint256 _totalPortions) external onlyOwner {\n        totalPortions = _totalPortions;\n    }\n\n    function allocation(address account) external view returns (uint256) {\n\n      return _balances[account];\n\n    }\n\n    function stakedBalance(address account) public view returns (uint256) {\n        return _balances[account];\n    }\n\n    // function stakedBalance(address account) internal view returns (uint256) {\n    //     return _balances[account];\n    // }\n\n    function tierLevel(address account) external view returns (uint256) {\n      if(stakedBalance(account) >= tier_06){\n        return tier_coefficient_06;\n      }\n      if(stakedBalance(account) >= tier_05){\n        return tier_coefficient_05;\n      }\n      if(stakedBalance(account) >= tier_04){\n        return tier_coefficient_04;\n      }\n      if(stakedBalance(account) >= tier_05){\n        return tier_coefficient_05;\n      }\n      return tier_coefficient_06;\n\n    }\n\n    function unlockTime(address account) external view returns (uint256) {\n        return _unlockTime[account];\n    }\n\n    function isIDO(address account) external view returns (bool) {\n        return _isIDO[account];\n    }\n\n    function stake(uint256 value) external notHalted {\n        require(value > 0, \"Staker: stake value should be greater than 0\");\n        _token.transferFrom(owner, address(this), value);\n\n        _balances[owner] = _balances[owner].add(value);\n        emit Stake(owner,now,value);\n    }\n\n    function unstake(uint256 value) external lockable {\n        require(_balances[owner] >= value, 'Staker: insufficient staked balance');\n\n        _balances[owner] = _balances[owner].sub(value);\n        _token.transfer(owner, value);\n        emit Unstake(owner,now,value);\n    }\n\n    function lock(address user, uint256 __unlockTime) external onlyIDO {\n        require(__unlockTime > now, \"Staker: unlock is in the past\");\n        if (_unlockTime[user] < __unlockTime) {\n            _unlockTime[user] = __unlockTime;\n            emit Lock(user,now,__unlockTime,owner);\n        }\n    }\n\n    function halt(bool status) external onlyOwner {\n        halted = status;\n    }\n\n    function addIDO(address account) external onlyOwner {\n        require(account != address(0), \"Staker: cannot be zero address\");\n        _isIDO[account] = true;\n    }\n\n    modifier onlyIDO() {\n        require(_isIDO[owner],\"Staker: only IDOs can lock\");\n        _;\n    }\n\n    modifier lockable() {\n        require(_unlockTime[owner] <= now, \"Staker: account is locked\");\n        _;\n    }\n\n    modifier notHalted() {\n        require(!halted, \"Staker: Deposits are paused\");\n        _;\n    }\n}\n",
  "sourcePath": "/home/zakarya/working/prestation/fiverr/Smitap66/Mission-02/SmartContracts/IDO/contracts/Staker.sol",
  "compiler": {
    "name": "solc",
    "version": "0.6.12+commit.27d51765.Emscripten.clang"
  },
  "schemaVersion": "3.4.0",
  "updatedAt": "2021-06-12T22:11:42.319Z",
  "devdoc": {
    "kind": "dev",
    "methods": {
      "renounceOwnership()": {
        "details": "Allows the current owner to relinquish control of the contract."
      },
      "transferOwnership(address)": {
        "details": "Allows the current owner to transfer control of the contract to a newOwner.",
        "params": {
          "newOwner": "The address to transfer ownership to."
        }
      }
    },
    "version": 1
  },
  "userdoc": {
    "kind": "user",
    "methods": {},
    "version": 1
  }
}