{
  "contractName": "Staker",
  "abi": [
    {
      "inputs": [],
      "stateMutability": "nonpayable",
      "type": "constructor"
    },
    {
      "anonymous": false,
      "inputs": [
        {
          "indexed": true,
          "internalType": "address",
          "name": "account",
          "type": "address"
        },
        {
          "indexed": false,
          "internalType": "uint256",
          "name": "timestamp",
          "type": "uint256"
        },
        {
          "indexed": false,
          "internalType": "uint256",
          "name": "unlockTime",
          "type": "uint256"
        },
        {
          "indexed": false,
          "internalType": "address",
          "name": "locker",
          "type": "address"
        }
      ],
      "name": "Lock",
      "type": "event"
    },
    {
      "anonymous": false,
      "inputs": [
        {
          "indexed": true,
          "internalType": "address",
          "name": "previousOwner",
          "type": "address"
        }
      ],
      "name": "OwnershipRenounced",
      "type": "event"
    },
    {
      "anonymous": false,
      "inputs": [
        {
          "indexed": true,
          "internalType": "address",
          "name": "previousOwner",
          "type": "address"
        },
        {
          "indexed": true,
          "internalType": "address",
          "name": "newOwner",
          "type": "address"
        }
      ],
      "name": "OwnershipTransferred",
      "type": "event"
    },
    {
      "anonymous": false,
      "inputs": [
        {
          "indexed": true,
          "internalType": "address",
          "name": "account",
          "type": "address"
        },
        {
          "indexed": false,
          "internalType": "uint256",
          "name": "timestamp",
          "type": "uint256"
        },
        {
          "indexed": false,
          "internalType": "uint256",
          "name": "value",
          "type": "uint256"
        }
      ],
      "name": "Stake",
      "type": "event"
    },
    {
      "anonymous": false,
      "inputs": [
        {
          "indexed": true,
          "internalType": "address",
          "name": "account",
          "type": "address"
        },
        {
          "indexed": false,
          "internalType": "uint256",
          "name": "timestamp",
          "type": "uint256"
        },
        {
          "indexed": false,
          "internalType": "uint256",
          "name": "value",
          "type": "uint256"
        }
      ],
      "name": "Unstake",
      "type": "event"
    },
    {
      "inputs": [],
      "name": "owner",
      "outputs": [
        {
          "internalType": "address",
          "name": "",
          "type": "address"
        }
      ],
      "stateMutability": "view",
      "type": "function",
      "constant": true
    },
    {
      "inputs": [],
      "name": "renounceOwnership",
      "outputs": [],
      "stateMutability": "nonpayable",
      "type": "function"
    },
    {
      "inputs": [
        {
          "internalType": "address",
          "name": "newOwner",
          "type": "address"
        }
      ],
      "name": "transferOwnership",
      "outputs": [],
      "stateMutability": "nonpayable",
      "type": "function"
    },
    {
      "inputs": [
        {
          "internalType": "address",
          "name": "account",
          "type": "address"
        }
      ],
      "name": "stakedBalance",
      "outputs": [
        {
          "internalType": "uint256",
          "name": "",
          "type": "uint256"
        }
      ],
      "stateMutability": "view",
      "type": "function",
      "constant": true
    },
    {
      "inputs": [
        {
          "internalType": "address",
          "name": "account",
          "type": "address"
        }
      ],
      "name": "unlockTime",
      "outputs": [
        {
          "internalType": "uint256",
          "name": "",
          "type": "uint256"
        }
      ],
      "stateMutability": "view",
      "type": "function",
      "constant": true
    },
    {
      "inputs": [
        {
          "internalType": "address",
          "name": "account",
          "type": "address"
        }
      ],
      "name": "isIDO",
      "outputs": [
        {
          "internalType": "bool",
          "name": "",
          "type": "bool"
        }
      ],
      "stateMutability": "view",
      "type": "function",
      "constant": true
    },
    {
      "inputs": [
        {
          "internalType": "uint256",
          "name": "value",
          "type": "uint256"
        }
      ],
      "name": "stake",
      "outputs": [],
      "stateMutability": "nonpayable",
      "type": "function"
    },
    {
      "inputs": [
        {
          "internalType": "uint256",
          "name": "value",
          "type": "uint256"
        }
      ],
      "name": "unstake",
      "outputs": [],
      "stateMutability": "nonpayable",
      "type": "function"
    },
    {
      "inputs": [
        {
          "internalType": "address",
          "name": "user",
          "type": "address"
        },
        {
          "internalType": "uint256",
          "name": "__unlockTime",
          "type": "uint256"
        }
      ],
      "name": "lock",
      "outputs": [],
      "stateMutability": "nonpayable",
      "type": "function"
    },
    {
      "inputs": [
        {
          "internalType": "bool",
          "name": "status",
          "type": "bool"
        }
      ],
      "name": "halt",
      "outputs": [],
      "stateMutability": "nonpayable",
      "type": "function"
    },
    {
      "inputs": [
        {
          "internalType": "address",
          "name": "account",
          "type": "address"
        }
      ],
      "name": "addIDO",
      "outputs": [],
      "stateMutability": "nonpayable",
      "type": "function"
    }
  ],
  "bytecode": "0x608060405234801561001057600080fd5b50600080546001600160a01b0319908116331790915560018054909116737485fdf15d6edc22529ab2245cf8a68e327270f71790556109ac806100546000396000f3fe608060405234801561001057600080fd5b50600436106100a95760003560e01c806376b467b71161007157806376b467b7146101735780638da5cb5b1461019957806396a38d22146101bd578063a694fc3a146101dc578063d91114bd146101f9578063f2fde38b1461021f576100a9565b8063282d3fdf146100ae5780632e17de78146100dc57806360217267146100f9578063715018a61461013157806373b8ff1a14610139575b600080fd5b6100da600480360360408110156100c457600080fd5b506001600160a01b038135169060200135610245565b005b6100da600480360360208110156100f257600080fd5b503561038c565b61011f6004803603602081101561010f57600080fd5b50356001600160a01b0316610555565b60408051918252519081900360200190f35b6100da610570565b61015f6004803603602081101561014f57600080fd5b50356001600160a01b03166105cf565b604080519115158252519081900360200190f35b61011f6004803603602081101561018957600080fd5b50356001600160a01b03166105ed565b6101a1610608565b604080516001600160a01b039092168252519081900360200190f35b6100da600480360360208110156101d357600080fd5b50351515610617565b6100da600480360360208110156101f257600080fd5b5035610641565b6100da6004803603602081101561020f57600080fd5b50356001600160a01b03166107e8565b6100da6004803603602081101561023557600080fd5b50356001600160a01b031661087e565b600080546001600160a01b031681526004602052604090205460ff166102b2576040805162461bcd60e51b815260206004820152601a60248201527f5374616b65723a206f6e6c792049444f732063616e206c6f636b000000000000604482015290519081900360640190fd5b428111610306576040805162461bcd60e51b815260206004820152601d60248201527f5374616b65723a20756e6c6f636b20697320696e207468652070617374000000604482015290519081900360640190fd5b6001600160a01b038216600090815260036020526040902054811115610388576001600160a01b03808316600081815260036020908152604080832086905591548251428152918201869052909316838201525190917f75784e97e4541f1b3d2c44d8c51b419e33fb6de615033cfc6e6810db54ffa4fe919081900360600190a25b5050565b600080546001600160a01b03168152600360205260409020544210156103f9576040805162461bcd60e51b815260206004820152601960248201527f5374616b65723a206163636f756e74206973206c6f636b656400000000000000604482015290519081900360640190fd5b600080546001600160a01b03168152600260205260409020548111156104505760405162461bcd60e51b81526004018080602001828103825260238152602001806109546023913960400191505060405180910390fd5b600080546001600160a01b03168152600260205260409020546104739082610903565b600080546001600160a01b039081168252600260209081526040808420949094556001548354855163a9059cbb60e01b8152908416600482015260248101879052945192169363a9059cbb93604480830194928390030190829087803b1580156104dc57600080fd5b505af11580156104f0573d6000803e3d6000fd5b505050506040513d602081101561050657600080fd5b5050600054604080514281526020810184905281516001600160a01b03909316927ff960dbf9e5d0682f7a298ed974e33a28b4464914b7a2bfac12ae419a9afeb280929181900390910190a250565b6001600160a01b031660009081526002602052604090205490565b6000546001600160a01b0316331461058757600080fd5b600080546040516001600160a01b03909116917ff8df31144d9c2f0f6b59d69b8b98abd5459d07f2742c4df920b25aae33c6482091a2600080546001600160a01b0319169055565b6001600160a01b031660009081526004602052604090205460ff1690565b6001600160a01b031660009081526003602052604090205490565b6000546001600160a01b031681565b6000546001600160a01b0316331461062e57600080fd5b6005805460ff1916911515919091179055565b60055460ff1615610699576040805162461bcd60e51b815260206004820152601b60248201527f5374616b65723a204465706f7369747320617265207061757365640000000000604482015290519081900360640190fd5b600081116106d85760405162461bcd60e51b815260040180806020018281038252602c815260200180610928602c913960400191505060405180910390fd5b60015460008054604080516323b872dd60e01b81526001600160a01b03928316600482015230602482015260448101869052905191909316926323b872dd9260648083019360209390929083900390910190829087803b15801561073b57600080fd5b505af115801561074f573d6000803e3d6000fd5b505050506040513d602081101561076557600080fd5b5050600080546001600160a01b031681526002602052604090205461078a908261091a565b600080546001600160a01b039081168252600260209081526040808420949094559154835142815292830185905283519116927f5af417134f72a9d41143ace85b0a26dce6f550f894f2cbc1eeee8810603d91b6928290030190a250565b6000546001600160a01b031633146107ff57600080fd5b6001600160a01b03811661085a576040805162461bcd60e51b815260206004820152601e60248201527f5374616b65723a2063616e6e6f74206265207a65726f20616464726573730000604482015290519081900360640190fd5b6001600160a01b03166000908152600460205260409020805460ff19166001179055565b6000546001600160a01b0316331461089557600080fd5b6001600160a01b0381166108a857600080fd5b600080546040516001600160a01b03808516939216917f8be0079c531659141344cd1fd0a4f28419497f9722a3daafe3b4186f6b6457e091a3600080546001600160a01b0319166001600160a01b0392909216919091179055565b60008282111561090f57fe5b508082035b92915050565b8181018281101561091457fefe5374616b65723a207374616b652076616c75652073686f756c642062652067726561746572207468616e20305374616b65723a20696e73756666696369656e74207374616b65642062616c616e6365a2646970667358221220c428315c3a211a1b2d18502aa18d06cf1e035abb0c9b99d3f677d5060a37a22d64736f6c634300060c0033",
  "immutableReferences": {},
  "source": "// SPDX-License-Identifier: UNLICENSED\n\npragma solidity ^0.6.12;\n\nimport \"./Context.sol\";\nimport \"./IERC20.sol\";\nimport \"./SafeMath.sol\";\nimport \"./Address.sol\";\nimport \"./Ownable.sol\";\n\ncontract Staker is Ownable {\n    using SafeMath for uint256;\n    using Address for address;\n\n    IERC20 _token;\n    mapping (address => uint256) _balances;\n    mapping (address => uint256) _unlockTime;\n    mapping (address => bool) _isIDO;\n    bool halted;\n\n    event Stake(address indexed account, uint256 timestamp, uint256 value);\n    event Unstake(address indexed account, uint256 timestamp, uint256 value);\n    event Lock(address indexed account, uint256 timestamp, uint256 unlockTime, address locker);\n\n    constructor() public {\n        _token = IERC20(0x7485fdF15D6eDc22529ab2245cf8A68E327270f7);\n    }\n\n    function stakedBalance(address account) external view returns (uint256) {\n        return _balances[account];\n    }\n\n    function unlockTime(address account) external view returns (uint256) {\n        return _unlockTime[account];\n    }\n\n    function isIDO(address account) external view returns (bool) {\n        return _isIDO[account];\n    }\n\n    function stake(uint256 value) external notHalted {\n        require(value > 0, \"Staker: stake value should be greater than 0\");\n        _token.transferFrom(owner, address(this), value);\n\n        _balances[owner] = _balances[owner].add(value);\n        emit Stake(owner,now,value);\n    }\n\n    function unstake(uint256 value) external lockable {\n        require(_balances[owner] >= value, 'Staker: insufficient staked balance');\n\n        _balances[owner] = _balances[owner].sub(value);\n        _token.transfer(owner, value);\n        emit Unstake(owner,now,value);\n    }\n\n    function lock(address user, uint256 __unlockTime) external onlyIDO {\n        require(__unlockTime > now, \"Staker: unlock is in the past\");\n        if (_unlockTime[user] < __unlockTime) {\n            _unlockTime[user] = __unlockTime;\n            emit Lock(user,now,__unlockTime,owner);\n        }\n    }\n\n    function halt(bool status) external onlyOwner {\n        halted = status;\n    }\n\n    function addIDO(address account) external onlyOwner {\n        require(account != address(0), \"Staker: cannot be zero address\");\n        _isIDO[account] = true;\n    }\n\n    modifier onlyIDO() {\n        require(_isIDO[owner],\"Staker: only IDOs can lock\");\n        _;\n    }\n\n    modifier lockable() {\n        require(_unlockTime[owner] <= now, \"Staker: account is locked\");\n        _;\n    }\n\n    modifier notHalted() {\n        require(!halted, \"Staker: Deposits are paused\");\n        _;\n    }\n}\n",
  "sourcePath": "/home/zakarya/working/prestation/fiverr/Smitap66/Mission-02/SmartContracts/Truffle/contracts/Staker.sol",
  "compiler": {
    "name": "solc",
    "version": "0.6.12+commit.27d51765.Emscripten.clang"
  },
  "schemaVersion": "3.4.0",
  "updatedAt": "2021-06-12T10:11:34.193Z",
  "networkType": "ethereum",
  "devdoc": {
    "kind": "dev",
    "methods": {
      "renounceOwnership()": {
        "details": "Allows the current owner to relinquish control of the contract."
      },
      "transferOwnership(address)": {
        "details": "Allows the current owner to transfer control of the contract to a newOwner.",
        "params": {
          "newOwner": "The address to transfer ownership to."
        }
      }
    },
    "version": 1
  },
  "userdoc": {
    "kind": "user",
    "methods": {},
    "version": 1
  }
}